S01200004144435F4472697665722E737265637F
S11300000C942A000C9434000C9434000C943400A6
S11300100C9434000C9434000C9434000C9434008C
S11300200C9434000C9434000C9434000C9434007C
S11300300C9434000C9434000C9434000C9434006C
S11300400C9434000C9434000C9434000C9434005C
S11300500C94340011241FBECFE5D8E0DEBFCDBF21
S11300600E9486020C94E5020C9400003F983E9A8C
S11300703D98389A359A309A319A329A3398379A09
S11300800895369A349BFECF64B175B144EF51E0C4
S1130090649F9001659F300D749F300D1124232FB0
S11300A026952695FC012083118208954423B9F1F5
S11300B0413009F06BC0813089F028F08230C9F0FA
S11300C0833011F108952AB381E090E002C0880FD3
S11300D0991F6A95E2F7822B8ABB089527B381E0C2
S11300E090E002C0880F991F6A95E2F7822B87BBC4
S11300F0089524B381E090E002C0880F991F6A95A7
S1130100E2F7822B84BB089521B381E090E002C022
S1130110880F991F6A95E2F7822B81BB089581307D
S113012091F028F08230D9F0833029F108952AB370
S113013081E090E002C0880F991F6A95E2F78095EC
S113014082238ABB089527B381E090E002C0880F20
S1130150991F6A95E2F78095822387BB089524B39B
S113016081E090E002C0880F991F6A95E2F78095BC
S1130170822384BB089521B381E090E002C0880FFC
S1130180991F6A95E2F78095822381BB08954423E1
S1130190B9F1413009F06BC0813089F028F0823028
S11301A0C9F0833011F108952BB381E090E002C0CF
S11301B0880F991F6A95E2F7822B8BBB089528B3A9
S11301C081E090E002C0880F991F6A95E2F7822BC4
S11301D088BB089525B381E090E002C0880F991F81
S11301E06A95E2F7822B85BB089522B381E090E003
S11301F002C0880F991F6A95E2F7822B82BB08958B
S1130200813091F028F08230D9F0833029F10895BB
S11302102BB381E090E002C0880F991F6A95E2F742
S1130220809582238BBB089528B381E090E002C0BF
S1130230880F991F6A95E2F78095822388BB0895F9
S113024025B381E090E002C0880F991F6A95E2F718
S11302508095822385BB089522B381E090E002C09B
S1130260880F991F6A95E2F78095822382BB0895CF
S1130270CF93C82F40E061E081E00E94C70040E0D6
S113028062E081E00E94C70040E063E081E00E94F8
S1130290C7008BB39C2F907F8F70892B8BBB41E061
S11302A063E081E00E94C7008FE99FE00197F1F7C6
S11302B000C0000040E063E081E00E94C7002BB36F
S11302C030E1C39FC0011124922F9F70892B8BBBF7
S11302D041E063E081E00E94C7008FE99FE001975D
S11302E0F1F700C0000040E063E081E00E94C70035
S11302F08FE19EE40197F1F700C00000CF910895CB
S113030041E061E081E00E94560041E062E081E06A
S11303100E94560041E063E081E00E94560041E003
S113032064E080E00E94560041E065E080E00E94C5
S1130330560041E066E080E00E94560041E067E03C
S113034080E00E9456002FEF81EE94E0215080401F
S11303509040E1F700C0000083E30E94380182E38B
S11303600E94380188E20E9438018CE00E94380122
S113037081E00E94380186E00E94380182E00E94F8
S113038038010895CF93C82F41E061E081E00E94D5
S1130390C70040E062E081E00E94C70040E063E003
S11303A081E00E94C7008C2F807F8BBB41E063E01B
S11303B081E00E94C7008FE99FE00197F1F700C038
S11303C0000040E063E081E00E94C700C295C07F66
S11303D0CBBB41E063E081E00E94C7008FE99FE06E
S11303E00197F1F700C0000040E063E081E00E9463
S11303F0C7008FE19EE40197F1F700C00000CF91A0
S1130400089581E00E94380108954F925F926F929F
S11304107F928F929F92AF92BF92CF92DF92EF9290
S1130420FF926B017C0199235CF48DE20E94C2016E
S1130430F094E094D094C094C11CD11CE11CF11C34
S11304401C141D041E041F040CF053C061E070E072
S113045080E090E00F2EFAE08F2E912CA12CB12C8D
S1130460F02DDC01CB01880F991FAA1FBB1F2C01A3
S11304703D01440C551C661C771C440C551C661C21
S1130480771C480E591E6A1E7B1EC701B601A501C2
S113049094010E94A402640D751D861D971DC22E31
S11304A0D32EE42EF52E1C141D041E041F04CCF2BE
S11304B06230710581059105E4F00F2EFAE08F2E6C
S11304C0912CA12CB12CF02DA50194010E94A40221
S11304D0C22ED32EE42EF52E80E3860F0E94C20195
S11304E06C2D7D2D8E2D9F2D62307105810591051A
S11304F05CF7FF90EF90DF90CF90BF90AF909F900C
S11305008F907F906F905F904F900895CF93DF937B
S113051000D0CDB7DEB71A8219820E9480010E94F2
S11305209E02CE0101960E94A1020E9401026981ED
S11305307A8180E090E00E940502F3CF0E943600A9
S113054008950E9441000895052E97FB1EF400941F
S11305500E94BB0257FD07D00E94C30207FC03D0D0
S11305604EF40C94BB0250954095309521953F4F25
S11305704F4F5F4F089590958095709561957F4F8B
S11305808F4F9F4F0895A1E21A2EAA1BBB1BFD019A
S11305900DC0AA1FBB1FEE1FFF1FA217B307E4075E
S11305A0F50720F0A21BB30BE40BF50B661F771FB6
S11305B0881F991F1A9469F7609570958095909596
S11105C09B01AC01BD01CF010895F894FFCF5B
S9030000FC
